:1000000074FFF5807400F5A0900400513B516D9091
:10001000040A5147516D900400513B516D900419F1
:100020005147516D900405513B516D900426514745
:10003000516D900400513B516D9004345147516D06
:10004000900405513B516D7A077840E40200FCF6BC
:10005000742A5160516D516D08DAF0900400513BE3
:10006000516D9004435147516DE479407A079004F3
:100070009EE49387F0B5F006A309DAF58038E479B9
:10008000407A079004A5E49387F0B5F006A309DA57
:10009000F58045900400513B516D900481514751CA
:1000A0006D900405513B516D9004905147516DC2C4
:1000B000B1C2B0020008900400513B516D9004524F
:1000C0005147516D900400513B516D90046351476D
:1000D000516DD2B0C2B18022900400513B516D905D
:1000E00004525147516D900400513B516D90047280
:1000F0005147516DC2B0D2B1800080FED2A0D2A1D2
:10010000D2A25132C2A0D2A1D2A22080061201876F
:1001100002004F2081061201C002004F2082061209
:1001200001F902004FD2A0C2A1D2A2208006120182
:100130009A02004F2081061201D302004F2082064E
:0F01400012020C02004F20830612017302004FBF
:10014F00D2A0D2A1C2A22080061201AD02004F2080
:10015F0081061201E602004F20820612021F0200E2
:10016F004F0200FCE4750100120232120232120239
:10017F003212023212023222E474011202321202DD
:10018F003212023212023212023222E474021202CC
:10019F003212023212023212023212023222E4748C
:1001AF0003120232120232120232120232120232DF
:1001BF0022E474041202321202321202321202329A
:1001CF0012023222E4740512023212023212023289
:1001DF0012023212023222E4740612023212023278
:1001EF0012023212023212023222E4740712023267
:1001FF0012023212023212023212023222E4740856
:10020F00120232120232120232120232120232225F
:10021F00E474091202321202321202321202321244
:10022F000232227BFF7CFFDCFEDBFA22E493515388
:10023F00516DA3600280F522E4935160516DA3606C
:10024F000280F522F590C2A3C2A4D2A5516DC2A51A
:10025F0022F590D2A3C2A4D2A5516DC2A5227BFADA
:07026F007CFFDCFEDBFA223C
:10040000380E010600380E06C00050415353574FB6
:100410005244204241534544004449474954414CC9
:10042000204C4F434B005341464554592053595398
:1004300054454D00454E5445522050415353574F5B
:1004400052440050524F43455353494E472E2E2E8F
:100450002E00414343455353202D204752414E54D3
:100460004544002D2D2D2D4C4F434B45442D2D2D16
:100470002D002D2D2D554E4C4F434B45442D2D2DEC
:100480000057524F4E472050415353574F5244004C
:100490004143434553532044454E494544000007DA
:0C04A0000402060900000906020407001F
:00000001FF
