:1000000074FFF5807400F5A09004005139516B9095
:10001000040A5145516B9004005139516B900419F9
:100020005145516B9004055139516B90042651454F
:10003000516B9004005139516B9004345145516B10
:100040009004055139516B7A077840E40200FCF6C0
:10005000742A515E516B516B08DAF09004005139EB
:10006000516B9004435145516BE479407A079004F9
:100070009EE49387F0B5F006A309DAF58038E479B9
:10008000407A079004A5E49387F0B5F006A309DA57
:10009000F580459004005139516B900481514551D0
:1000A0006B9004055139516B9004905145516BC2CE
:1000B000B1C2B00200089004005139516B90045253
:1000C0005145516B9004005139516B900463514577
:1000D000516BD2B0C2B180229004005139516B9063
:1000E00004525145516B9004005139516B90047288
:1000F0005145516BC2B0D2B1800080FED2A0D2A1D6
:10010000D2A25130C2A0D2A1D2A220800612018672
:1001100002004F2081061201BF02004F208206120A
:1001200001F702004FD2A0C2A1D2A2208006120184
:100130009902004F2081061201D202004F20820650
:0F01400012020A02004F20830612017302004FC1
:10014F00D2A0D2A1C2A22080061201AC02004F2081
:10015F0081061201E502004F20820612021D0200E5
:10016F004F0200FCE474001202301202301202300F
:10017F0012023012023022E47401120230120230E5
:10018F0012023012023012023022E47402120230D4
:10019F0012023012023012023012023022E47403C3
:1001AF0012023012023012023012023012023022CA
:1001BF00E4740412023012023012023012023012B2
:1001CF00023022E474051202301202301202301291
:1001DF000230120230227406120230120230120262
:1001EF003012023012023022E4740712023012026F
:1001FF003012023012023012023022E4740812025E
:10020F003012023012023012023012023022E47425
:10021F000912023012023012023012023012023072
:10022F00227BFF7CFFDCFEDBFA22E4935151516B02
:10023F00A3600280F522E493515E516BA3600280AC
:10024F00F522F590C2A3C2A4D2A5516BC2A522F587
:10025F0090D2A3C2A4D2A5516BC2A5227BFA7CFF78
:05026F00DCFEDBFA22B9
:10040000380E010600380E06C00050415353574FB6
:100410005244204241534544004449474954414CC9
:10042000204C4F434B005341464554592053595398
:1004300054454D00454E5445522050415353574F5B
:1004400052440050524F43455353494E472E2E2E8F
:100450002E00414343455353202D204752414E54D3
:100460004544002D2D2D2D4C4F434B45442D2D2D16
:100470002D002D2D2D554E4C4F434B45442D2D2DEC
:100480000057524F4E472050415353574F5244004C
:100490004143434553532044454E494544000101DF
:0C04A0000101010101000000000000004B
:00000001FF
