:1000000074FFF5807400F5A0900400513A516C9093
:10001000040A5146516C900400513A516C900419F5
:100020005146516C900405513A516C90042651464A
:10003000516C900400513A516C9004345146516C0B
:10004000900405513A516C7A077840E40200FCF6BE
:10005000742A515F516C516C08DAF0900400513AE7
:10006000516C9004435146516CE479407A079004F6
:100070009EE49387F0B5F006A309DAF58038E479B9
:10008000407A079004A5E49387F0B5F006A309DA57
:10009000F58045900400513A516C900481514651CD
:1000A0006C900405513A516C9004905146516CC2C9
:1000B000B1C2B0020008900400513A516C90045251
:1000C0005146516C900400513A516C900463514672
:1000D000516CD2B0C2B18022900400513A516C9060
:1000E00004525146516C900400513A516C90047284
:1000F0005146516CC2B0D2B1800080FED2A0D2A1D4
:10010000D2A25131C2A0D2A1D2A220800612018671
:1001100002004F2081061201BF02004F208206120A
:1001200001F802004FD2A0C2A1D2A2208006120183
:100130009902004F2081061201D202004F20820650
:0F01400012020B02004F20830612017302004FC0
:10014F00D2A0D2A1C2A22080061201AC02004F2081
:10015F0081061201E502004F20820612021E0200E4
:10016F004F0200FCE474001202311202311202310C
:10017F0012023112023122E47401120231120231E1
:10018F0012023112023112023122E47402120231D0
:10019F0012023112023112023112023122E47403BF
:1001AF0012023112023112023112023112023122C5
:1001BF00E4740412023112023112023112023112AE
:1001CF00023122E47405120231120231120231128D
:1001DF00023112023122E47406120231120231127C
:1001EF00023112023112023122E47407120231126B
:1001FF00023112023112023112023122E47408125A
:10020F00023112023112023112023112023122E492
:10021F00740912023112023112023112023112022A
:10022F0031227BFF7CFFDCFEDBFA22E4935152513B
:10023F006CA3600280F522E493515F516CA36002BE
:10024F0080F522F590C2A3C2A4D2A5516CC2A522FB
:10025F00F590D2A3C2A4D2A5516CC2A5227BFA7C81
:06026F00FFDCFEDBFA22B9
:10040000380E010600380E06C00050415353574FB6
:100410005244204241534544004449474954414CC9
:10042000204C4F434B005341464554592053595398
:1004300054454D00454E5445522050415353574F5B
:1004400052440050524F43455353494E472E2E2E8F
:100450002E00414343455353202D204752414E54D3
:100460004544002D2D2D2D4C4F434B45442D2D2D16
:100470002D002D2D2D554E4C4F434B45442D2D2DEC
:100480000057524F4E472050415353574F5244004C
:100490004143434553532044454E494544000007DA
:0C04A0000402060900000906020407001F
:00000001FF
